:020000040000FA
:100000000C9452010C947A010C947A010C947A01AC
:100010000C947A010C947A010C947A010C947A0174
:100020000C947A010C947A010C947A010C947A0164
:100030000C947A010C947A010C947A010C947A0154
:100040000C947D060C947A010C94ED060C94C70672
:100050000C947A010C947A010C947A010C947A0134
:100060000C947A010C947A01000000000000005FFB
:1000700000000007000700147F147F14242A7F2A41
:10008000122313086462364955225000050300000C
:10009000001C2241000041221C0014083E081408E4
:1000A000083E0808005030000008080808080060F2
:1000B00060000020100804023E5149453E00427F86
:1000C000400042615149462141454B311814127F8D
:1000D0001027454545393C4A494930017109050316
:1000E0003649494936064949291E0036360000007E
:1000F0005636000008142241001414141414004150
:100100002214080201510906324979413E7E11113B
:10011000117E7F494949363E414141227F4141227A
:100120001C7F494949417F090909013E4149497AF2
:100130007F0808087F00417F41002040413F017F48
:10014000081422417F404040407F020C027F7F0420
:1001500008107F3E4141413E7F090909063E415159
:10016000215E7F09192946464949493101017F012C
:10017000013F4040403F1F2040201F3F4038403F4C
:100180006314081463070870080761514945430068
:100190007F41410002040810200041417F00040219
:1001A0000102044040404040000102040020545439
:1001B00054787F48444438384444442038444448C0
:1001C0007F3854545418087E0901020C5252523E92
:1001D0007F0804047800447D40002040443D007FB7
:1001E0001028440000417F40007C041804787C08FB
:1001F00004047838444444387C1414140808141453
:10020000187C7C080404084854545420043F44409B
:10021000203C4040207C1C2040201C3C4030403C86
:1002200044281028440C5050503C4464544C440022
:100230000836410000007F00000041360800100829
:100240000810080000000000000000002400270043
:100250002A0000000000250028002B0000000000FC
:1002600023002600290004040404040404040202F8
:100270000202020203030303030301020408102025
:100280004080010204081020010204081020000030
:100290000008000201000003040700000000000045
:1002A00000001F0711241FBECFEFD8E0DEBFCDBF77
:1002B00011E0A0E0B1E0ECE9FBE102C005900D9295
:1002C000A636B107D9F722E0A6E6B1E001C01D923B
:1002D000AB36B207E1F711E0C2E5D1E004C02197E7
:1002E000FE010E94C60DC135D107C9F70E945F0704
:1002F0000C94CC0D0C940000833081F028F48130F4
:1003000099F08230A9F008958730A9F08830C9F0BB
:100310008430B1F4809180008F7D03C08091800093
:100320008F7780938000089584B58F7784BD08957A
:1003300084B58F7DFBCF8091B0008F778093B00024
:1003400008958091B0008F7DF9CFCF93DF93282F50
:1003500030E0F901E257FD4F8491F901E658FD4F75
:10036000D491F901EA59FD4FC491CC23A1F0811138
:100370000E947C01EC2FF0E0EE0FFF1FE45AFD4FCE
:10038000A591B491EC91ED2381E090E009F480E037
:10039000DF91CF91089580E090E0FACF1F93CF9343
:1003A000DF93282F30E0F901E257FD4F8491F901E6
:1003B000E658FD4FD491F901EA59FD4FC491CC2381
:1003C000A9F0162F81110E947C01EC2FF0E0EE0FB6
:1003D000FF1FEE5AFD4FA591B4918FB7F894EC91A1
:1003E000111108C0D095DE23DC938FBFDF91CF9130
:1003F0001F910895DE2BF8CFCF93DF9390E0FC019F
:10040000E658FD4F24918A599D4FFC018491882321
:10041000D1F090E0880F991FFC01E85BFD4FA5919A
:10042000B491FC01EE5AFD4FC591D491623071F444
:100430009FB7F8943C91822F809583238C93E88119
:100440002E2B28839FBFDF91CF9108958FB7F8940B
:10045000EC912E2B2C938FBFF6CF3FB7F894809161
:100460007B0190917C01A0917D01B0917E0126B528
:10047000A89B05C02F3F19F00196A11DB11D3FBFDC
:10048000BA2FA92F982F8827BC01CD01620F711DAB
:10049000811D911D42E0660F771F881F991F4A95A5
:1004A000D1F708958F929F92AF92BF92CF92DF9231
:1004B000EF92FF920E942D024B015C0184E6C82E50
:1004C000D12CE12CF12C0E942D02681979098A099E
:1004D0009B09683E734081059105A8F321E0C21A8B
:1004E000D108E108F10888EE880E83E0981EA11C6F
:1004F000B11CC114D104E104F10429F7FF90EF907D
:10050000DF90CF90BF90AF909F908F900895AF9263
:10051000BF92CF92DF92EF92FF920F931F93CF93F0
:10052000DF936C017B018B01040F151FEB015E0152
:10053000AE18BF08C017D10759F06991D601ED91E7
:10054000FC910190F081E02DC6010995892B79F786
:10055000C501DF91CF911F910F91FF90EF90DF9038
:10056000CF90BF90AF900895FC01538D448D252FFF
:1005700030E0842F90E0821B930B541710F0CF963D
:10058000089501970895FC01918D828D981761F06F
:10059000A28DAE0FBF2FB11D5D968C91928D9F5F86
:1005A0009F73928F90E008958FEF9FEF0895FC0165
:1005B000918D828D981731F0828DE80FF11D858D18
:1005C00090E008958FEF9FEF0895FC01918D228DAB
:1005D000892F90E0805C9F4F821B91098F73992730
:1005E00008958FE791E00E94E50221E0892B09F44C
:1005F00020E0822F089580E090E0892B29F00E946E
:10060000F10281110C9400000895FC01A48DA80F43
:10061000B92FB11DA35ABF4F2C91848D90E0019644
:100620008F739927848FA689B7892C93A089B18964
:100630008C91837080648C93938D848D981306C005
:100640000288F389E02D80818F7D80830895EF9269
:10065000FF920F931F93CF93DF93EC0181E0888F7C
:100660009B8D8C8D98131AC0E889F989808185FF4C
:1006700015C09FB7F894EE89FF896083E889F989EE
:1006800080818370806480839FBF81E090E0DF91F0
:10069000CF911F910F91FF90EF900895F62E0B8D43
:1006A00010E00F5F1F4F0F731127E02E8C8D8E11FE
:1006B0000CC00FB607FCFACFE889F989808185FF65
:1006C000F5CFCE010E940503F1CFEB8DEC0FFD2F8E
:1006D000F11DE35AFF4FF0829FB7F8940B8FEA8920
:1006E000FB8980818062CFCFCF93DF93EC01888D2F
:1006F0008823B9F0AA89BB89E889F9898C9185FD9D
:1007000003C0808186FD0DC00FB607FCF7CF8C912A
:1007100085FFF2CF808185FFEDCFCE010E940503DA
:10072000E9CFDF91CF910895089590E080E008959A
:100730008E50806480937C0080917A0080648093E6
:100740007A0080917A0086FDFCCF609178007091EC
:100750007900072E000C880B990B0E94550C20E0A5
:1007600030E040EA50E40E940A0D25EB38EC44EDFD
:1007700052E40E94B20B25EC3EE440EC51E40E94AE
:10078000400B08958F929F92AF92BF92CF92DF92CB
:10079000EF92FF92CF93DF93EC010E94980320E049
:1007A00030E0A9010E94050D1816ACF4CE010E949C
:1007B00098036B017C01CE010E94980320E030E099
:1007C000A9010E94050D181684F4CE010E94980319
:1007D0004B015C0113C0CE010E9498036B017C01A8
:1007E000F7FAF094F7F8F094E6CFCE010E94980360
:1007F0004B015C01B7FAB094B7F8B094A50194012D
:10080000C701B6010E94AD0B87FF30C075016401BE
:10081000CE010E94980320E030E0A9010E94050D5E
:100820001816D4F4CE010E9498034B015C01A50177
:100830009401C701B6010E94050D87FDE7CFC701EE
:10084000B601DF91CF91FF90EF90DF90CF90BF90F6
:10085000AF909F908F900895CE010E9498034B0116
:100860005C01B7FAB094B7F8B094E1CFA501940158
:10087000C701B6010E94AD0B882309F3CE010E9487
:10088000980320E030E0A9010E94050D181634F409
:10089000CE010E949803750164019ACFCE010E9497
:1008A00098039058F8CFFB0101900020E9F73197A9
:1008B000AF01461B570BDC01ED91FC910280F381E7
:1008C000E02D09948F929F92AF92BF92EF92FF9288
:1008D0000F931F93CF93DF93CDB7DEB7A1970FB6DA
:1008E000F894DEBF0FBECDBF7C01FA01CB0119A287
:1008F000223008F42AE08E010F5D1F4F822E912CCA
:10090000B12CA12CBF01A50194010E94900DF90109
:10091000CA016A300CF5605DD8016E938D01232BFE
:10092000242B252B79F790E080E0109721F0BD0172
:10093000C7010E945304A1960FB6F894DEBF0FBE04
:10094000CDBFDF91CF911F910F91FF90EF90BF909E
:10095000AF909F908F900895695CDECF0C94530404
:100960002F923F924F925F926F927F928F929F92BF
:10097000AF92BF92CF92DF92EF92FF921F93CF93ED
:10098000DF93EC016A017B01722EAB019601CB0172
:10099000B6010E94770D6EE171E0811126C046011B
:1009A0005701E894B7F82FEF3FEF4FE75FE7C50136
:1009B000B4010E94770D81110CC02FEF3FEF4FE77C
:1009C0005FE7C501B4010E94AD0B62E271E0181649
:1009D00064F02FEF3FEF4FE75FE4C701B6010E94DD
:1009E000050D1816B4F466E271E0CE01DF91CF91E7
:1009F0001F91FF90EF90DF90CF90BF90AF909F90AE
:100A00008F907F906F905F904F903F902F900C94BD
:100A100053042FEF3FEF4FE75FECC701B6010E9491
:100A2000AD0B87FDE0CF20E030E0A901C701B601A2
:100A30000E94AD0B312C212C87FF0DC0E881F9817C
:100A40000190F081E02D6DE2CE0109951C01F7FACD
:100A5000F094F7F8F09410E060E070E080E09FE33D
:100A6000711641F020E030E040E251E40E94B20B08
:100A70001F5FF6CFA70196010E94410B2B013C019D
:100A80000E94240C4B015C012AE0BC01A401CE01B0
:100A90000E9462047C01E20CF31C1123E1F1C50108
:100AA000B4010E94530C9B01AC01C301B2010E942E
:100AB000400B4B015C01E881F9810190F081E02D50
:100AC0006EE2CE010995E80EF91E115020F120E0EA
:100AD00030E040E251E4C501B4010E940A0D2B014F
:100AE0003C010E94240C4B01B12CA12C2AE0B50141
:100AF000A401CE010E946204E80EF91EC501B401F2
:100B00000E94530C9B01AC01C301B2010E94400B37
:100B10004B015C01DACFC701DF91CF911F91FF90AC
:100B2000EF90DF90CF90BF90AF909F908F907F908D
:100B30006F905F904F903F902F900895CF93DF93E9
:100B4000AB01BC0122E08FE791E00E94B004EC0110
:100B50006AE271E08FE791E00E9453048C0F9D1FC1
:100B6000DF91CF910895EF92FF920F931F93CF9350
:100B7000DF93EC01042F8E810E94CE0160E0888516
:100B80000E94CE01FC80ED8018E0602F661F662772
:100B9000661F8E2D0E94CE01000F61E08F2D0E94F6
:100BA000CE0160E08F2D0E94CE01115071F761E0FF
:100BB0008885DF91CF911F910F91FF90EF900C945A
:100BC000CE01CF93DF93CCE1D2E01C8690E06B8521
:100BD00029E3629F612D1124669570E06F5F7F4F5E
:100BE0000E947C0D8D8740E860E0CE010E94B30535
:100BF0004D85406460E0CE01DF91CF910C94B30548
:100C0000CF92DF92EF92FF920F931F93CF93DF93D8
:100C100000D000D01F92CDB7DEB767FD6BC07C015E
:100C2000862F90E0603208F455C0809725E0289F19
:100C3000B001299F700D112468597F4F45E050E0A5
:100C4000CE0101960E94370B8E010F5F1F4F680186
:100C500085E0C80ED11CF80141918F01F70186850E
:100C60008111409561E0C7010E94B3050C151D0577
:100C700091F7F7014685419561E0C7010E94B305F0
:100C8000F701848590E00696628570E00E947C0DF5
:100C90008487892B79F4858590E00196638529E323
:100CA000629F612D1124669570E06F5F7F4F0E94F7
:100CB0007C0D858781E090E00F900F900F900F9052
:100CC0000F90DF91CF911F910F91FF90EF90DF90E8
:100CD000CF900895880F991FF701E80FF91F078536
:100CE00010890115110509F0B2CF45E050E068E622
:100CF00070E0A6CF90E080E0DFCF1F920F920FB69A
:100D00000F9211242F933F938F939F93AF93BF9391
:100D10008091770190917801A0917901B0917A0149
:100D20003091760123E0230F2D3758F50196A11D50
:100D3000B11D209376018093770190937801A09361
:100D40007901B0937A0180917B0190917C01A0910F
:100D50007D01B0917E010196A11DB11D80937B01A3
:100D600090937C01A0937D01B0937E01BF91AF91E0
:100D70009F918F913F912F910F900FBE0F901F90D9
:100D8000189526E8230F0296A11DB11DD2CF1F9200
:100D90000F920FB60F9211242F933F934F935F93AF
:100DA0006F937F938F939F93AF93BF93EF93FF9333
:100DB0008FE791E00E940503FF91EF91BF91AF9102
:100DC0009F918F917F916F915F914F913F912F9163
:100DD0000F900FBE0F901F9018951F920F920FB695
:100DE0000F9211242F938F939F93EF93FF93E09192
:100DF0008F01F09190018081E0919501F091960131
:100E000082FD1BC09081809198018F5F8F7320912C
:100E10009901821741F0E0919801F0E0E158FE4F0E
:100E2000958F80939801FF91EF919F918F912F91D2
:100E30000F900FBE0F901F9018958081F4CFEFE7B1
:100E4000F1E01382128288EE93E0A0E0B0E08483A8
:100E50009583A683B78384E091E09183808385ECBA
:100E600090E09587848784EC90E09787868780EC74
:100E700090E0918B808B81EC90E0938B828B82EC65
:100E800090E0958B848B86EC90E0978B868B118E0F
:100E9000128E138E148EECE1F2E01382128286E140
:100EA00091E09183808383E0848384E0858385E07F
:100EB000868386E0878387E0808716860895CF93B0
:100EC000DF93CDB7DEB766970FB6F894DEBF0FBEDF
:100ED000CDBF789484B5826084BD84B5816084BDC3
:100EE00085B5826085BD85B5816085BD80916E00C8
:100EF000816080936E0010928100809181008260F9
:100F00008093810080918100816080938100809135
:100F100080008160809380008091B1008460809324
:100F2000B1008091B00081608093B00080917A0020
:100F3000846080937A0080917A00826080937A0046
:100F400080917A00816080937A0080917A00806835
:100F500080937A001092C100E0918F01F09190018E
:100F600082E08083E0918B01F0918C011082E0910E
:100F70008D01F0918E018FEC808310929701E091AA
:100F80009301F091940186E08083E0919101F091CA
:100F90009201808180618083E0919101F0919201C2
:100FA000808188608083E0919101F091920180813D
:100FB00080688083E0919101F091920180818F7D22
:100FC000808362E088E00E94FC0162E089E00E9488
:100FD000FC0161E08AE00E94FC0161E08BE00E947C
:100FE000FC0161E08CE00E94FC0161E08DE00E9468
:100FF000FC0184E58093260280E38093270210920F
:1010000025021092280210922902EBE2F2E080E41D
:10101000DF011D928A95E9F761E0809120020E942C
:10102000FC0161E0809121020E94FC0161E080915D
:1010300022020E94FC0161E0809123020E94FC01D7
:1010400061E0809124020E94FC0161E08091230212
:101050000E94CE0161E0809124020E94CE0160E0F6
:10106000809123020E94CE010E94520261E0809191
:1010700023020E94CE0141E260E08CE192E00E94F6
:10108000B30543E160E08CE192E00E94B3058091FA
:10109000250242EC813039F440EE60E08CE192E0D0
:1010A0000E94B30545E060E08CE192E00E94B30548
:1010B00040E260E08CE192E00E94B30549E060E02C
:1010C0008CE192E00E94B30580E00E94E1051A8263
:1010D00019828091270286958695869590912602A1
:1010E000899FC001112429813A812817390760F4AA
:1010F00040E061E08CE192E00E94B30589819A8131
:1011000001969A838983E5CF80E00E94E10548E05B
:1011100060E08CE192E00E94B3054CE060E08CE17D
:1011200092E00E94B3050E94520240E860E08CE128
:1011300092E00E94B30540E460E08CE192E00E94FE
:10114000B30500E010E089E00E94A5013C0188E0C1
:101150000E94A5019E8B8D8B8EE090E00E949803EB
:1011600069837A838B839C838FE090E00E9498034D
:101170006D837E838F83988780E190E00E9498033F
:101180006B017C0181E190E00E9498034B015C01BE
:10119000672809F4FAC020E030E040EA51E46981B0
:1011A0007A818B819C810E94050D181664F020E0E5
:1011B00030E040EA51EC69817A818B819C810E9408
:1011C000AD0B60E087FD61E08DE00E94CE0120E084
:1011D00030E040EA51E46D817E818F8198850E94E4
:1011E000050D181664F020E030E040EA51EC6D8106
:1011F0007E818F8198850E94AD0B60E087FD61E064
:101200008CE00E94CE0120E030E040EA51E4C701CA
:10121000B6010E94050D181654F020E030E040EAB7
:1012200051ECC701B6010E94AD0B60E087FD61E0A3
:101230008BE00E94CE0120E030E040EA51E4C5019D
:10124000B4010E94050D181654F020E030E040EA89
:1012500051ECC501B4010E94AD0B60E087FD61E077
:101260008AE00E94CE0180E00E94E1056DE271E01B
:101270008CE192E00E94AE0481E00E94E10569E306
:1012800071E08CE192E00E94AE04AD89BE89AB2B87
:1012900061F561E571E08FE791E00E94AE04C50160
:1012A000B4010E949E0566E571E08FE791E00E941F
:1012B000AE04C701B6010E949E056BE571E08FE7A1
:1012C00091E00E94AE046D817E818F8198850E949D
:1012D0009E0560E671E08FE791E00E94AE046981AF
:1012E0007A818B819C810E949E0582E00E94E105AB
:1012F00061E571E08CE192E00E94AE0422E0B5016C
:10130000A4018CE192E00E94B00483E00E94E10518
:1013100066E571E08CE192E00E94AE0422E0B70144
:10132000A6018CE192E00E94B00484E00E94E105F5
:101330006BE571E08CE192E00E94AE0422E04D8109
:101340005E816F8178858CE192E00E94B00485E037
:101350000E94E10560E671E08CE192E00E94AE043B
:1013600022E049815A816B817C818CE192E00E946C
:10137000B0040115110509F4E6CE0E94F10288239C
:1013800009F4E1CE0E940000DECE8EE090E00E94E3
:10139000C2036B017C018090720190907301A09058
:1013A0007401B0907501A50194010E94050D1816F5
:1013B00074F0A7019601C501B4010E94400B20E022
:1013C00030E040E85FE30E94050D181644F4C09237
:1013D0007201D0927301E0927401F09275018091D4
:1013E000720190917301A0917401B0917501898788
:1013F0009A87AB87BC8723EF34E045EB5FE3BC0102
:10140000CD010E94B20B69837A838B839C838FE02A
:1014100090E00E94C2036B017C0180906E0190906D
:101420006F01A0907001B0907101A50194010E941C
:10143000050D181674F0A7019601C501B4010E94AC
:10144000400B20E030E040E85FE30E94050D1816F5
:1014500044F4C0926E01D0926F01E0927001F0925C
:10146000710180916E0190916F01A0917001B09116
:1014700071018D879E87AF87B88B23EF34E045EBF2
:101480005FE3BC01CD010E94B20B6D837E838F832D
:10149000988780E190E00E94C2036B017C018090FC
:1014A0006A0190906B01A0906C01B0906D01A50154
:1014B00094010E94050D181674F0A7019601C5014C
:1014C000B4010E94400B20E030E040E85FE30E945E
:1014D000050D181644F4C0926A01D0926B01E09297
:1014E0006C01F0926D0180916A0190916B01A09165
:1014F0006C01B0916D01898B9A8BAB8BBC8B23EF08
:1015000034E045EB5FE3BC01CD010E94B20B6B01FF
:101510007C0181E190E00E94C2034B015C0140909C
:101520006601509067016090680170906901A301A5
:1015300092010E94050D181674F0A5019401C301D3
:10154000B2010E94400B20E030E040E85FE30E94DF
:10155000050D181644F48092660190926701A092DE
:101560006801B092690140906601509067016090F7
:1015700068017090690123EF34E045EB5FE3C3013C
:10158000B2010E94B20B4B015C0120E030E040EA66
:1015900051E469857A858B859C850E94050D181616
:1015A00064F020E030E040EA51EC69857A858B8573
:1015B0009C850E94AD0B60E087FD61E08DE00E949C
:1015C000CE0120E030E040EA51E46D857E858F85D4
:1015D00098890E94050D181664F020E030E040EA7A
:1015E00051EC6D857E858F8598890E94AD0B60E0FA
:1015F00087FD61E08CE00E94CE0120E030E040EA0F
:1016000051E469897A898B899C890E94050D181695
:1016100064F020E030E040EA51EC69897A898B89F6
:101620009C890E94AD0B60E087FD61E08BE00E9429
:10163000CE0120E030E040EA51E4C301B2010E9453
:10164000050D181654F020E030E040EA51ECC301DB
:10165000B2010E94AD0B60E087FD61E08AE00E946C
:10166000CE0180E00E94E10565E471E001CEFB015E
:10167000DC0102C005900D9241505040D8F708950A
:101680005058BB27AA270E94580B0C94CB0C0E94E1
:10169000BD0C38F00E94C40C20F039F49F3F19F4BF
:1016A00026F40C94BA0C0EF4E095E7FB0C94B40C01
:1016B000E92F0E94DC0C58F3BA17620773078407FE
:1016C000950720F079F4A6F50C94FE0C0EF4E09545
:1016D0000B2EBA2FA02D0B01B90190010C01CA01EC
:1016E000A0011124FF27591B99F0593F50F4503E97
:1016F00068F11A16F040A22F232F342F4427585F89
:10170000F3CF469537952795A795F0405395C9F7A0
:101710007EF41F16BA0B620B730B840BBAF0915058
:10172000A1F0FF0FBB1F661F771F881FC2F70EC0F7
:10173000BA0F621F731F841F48F4879577956795CA
:10174000B795F7959E3F08F0B0CF9395880F08F0B6
:101750009927EE0F9795879508950E94900C08F4AD
:1017600081E008950E94C60B0C94CB0C0E94C40C1F
:1017700058F00E94BD0C40F029F45F3F29F00C9412
:10178000B40C51110C94FF0C0C94BA0C0E94DC0C9C
:1017900068F39923B1F3552391F3951B550BBB27A0
:1017A000AA2762177307840738F09F5F5F4F220FE5
:1017B000331F441FAA1FA9F335D00E2E3AF0E0E8DC
:1017C00032D091505040E695001CCAF72BD0FE2F26
:1017D00029D0660F771F881FBB1F261737074807BA
:1017E000AB07B0E809F0BB0B802DBF01FF27935872
:1017F0005F4F3AF09E3F510578F00C94B40C0C9476
:10180000FF0C5F3FE4F3983ED4F386957795679598
:10181000B795F7959F5FC9F7880F911D96958795A6
:1018200097F90895E1E0660F771F881FBB1F6217C5
:1018300073078407BA0720F0621B730B840BBA0B83
:10184000EE1F88F7E09508950E94E40C88F09F57FA
:1018500098F0B92F9927B751B0F0E1F0660F771FD4
:10186000881F991F1AF0BA95C9F714C0B13091F0CA
:101870000E94FE0CB1E008950C94FE0C672F782FA7
:101880008827B85F39F0B93FCCF38695779567958F
:10189000B395D9F73EF490958095709561957F4FFB
:1018A0008F4F9F4F0895E89409C097FB3EF49095A1
:1018B0008095709561957F4F8F4F9F4F9923A9F029
:1018C000F92F96E9BB279395F695879577956795B8
:1018D000B795F111F8CFFAF4BB0F11F460FF1BC0FC
:1018E0006F5F7F4F8F4F9F4F16C0882311F096E98F
:1018F00011C0772321F09EE8872F762F05C066233D
:1019000071F096E8862F70E060E02AF09A95660FF5
:10191000771F881FDAF7880F9695879597F90895AE
:10192000990F0008550FAA0BE0E8FEEF16161706F0
:10193000E807F907C0F012161306E407F50798F058
:10194000621B730B840B950B39F40A2661F0232B71
:10195000242B252B21F408950A2609F4A140A695ED
:101960008FEF811D811D089597F99F6780E870E0D2
:1019700060E008959FEF80EC089500240A94161605
:10198000170618060906089500240A94121613066D
:10199000140605060895092E0394000C11F48823FB
:1019A00052F0BB0F40F4BF2B11F460FF04C06F5F17
:1019B0007F4F8F4F9F4F089557FD9058440F551FED
:1019C00059F05F3F71F04795880F97FB991F61F0C1
:1019D0009F3F79F087950895121613061406551F38
:1019E000F2CF4695F1DF08C0161617061806991FA4
:1019F000F1CF86957105610508940895E894BB2799
:101A000066277727CB0197F908950E94900C08F478
:101A10008FEF08950E941D0D0C94CB0C0E94BD0CFD
:101A200038F00E94C40C20F0952311F00C94B40CF3
:101A30000C94BA0C11240C94FF0C0E94DC0C70F373
:101A4000959FC1F3950F50E0551F629FF001729F63
:101A5000BB27F00DB11D639FAA27F00DB11DAA1F72
:101A6000649F6627B00DA11D661F829F2227B00DBF
:101A7000A11D621F739FB00DA11D621F839FA00D4A
:101A8000611D221F749F3327A00D611D231F849F9A
:101A9000600D211D822F762F6A2F11249F575040F1
:101AA0009AF0F1F088234AF0EE0FFF1FBB1F661F6C
:101AB000771F881F91505040A9F79E3F510580F035
:101AC0000C94B40C0C94FF0C5F3FE4F3983ED4F3F9
:101AD000869577956795B795F795E7959F5FC1F7D9
:101AE000FE2B880F911D9695879597F908950E9472
:101AF000900C880B990B089597FB072E16F4009411
:101B000007D077FD09D00E94B20D07FC05D03EF446
:101B1000909581959F4F0895709561957F4F089599
:101B2000A1E21A2EAA1BBB1BFD010DC0AA1FBB1FE1
:101B3000EE1FFF1FA217B307E407F50720F0A21B53
:101B4000B30BE40BF50B661F771F881F991F1A94C0
:101B500069F760957095809590959B01AC01BD01EA
:101B6000CF010895AA1BBB1B51E107C0AA1FBB1FD1
:101B7000A617B70710F0A61BB70B881F991F5A9519
:101B8000A9F780959095BC01CD010895EE0FFF1F38
:101B90000590F491E02D0994F894FFCF0000000027
:101BA00027038702B4027403E502C302D7020000D0
:101BB000000000068702950394036E616E00696E53
:101BC00066006F7666000D0A00444320566F6C7401
:101BD00061676573002D2D2D2D2D2D2D2D2D2D2D76
:101BE00000414320566F6C74616765730056313A4B
:101BF000200056323A200056333A200056343A201C
:021C00000000E2
:107E0000112484B714BE81FFF0D085E080938100F7
:107E100082E08093C00088E18093C10086E0809377
:107E2000C20080E18093C4008EE0C9D0259A86E02C
:107E300020E33CEF91E0309385002093840096BBD3
:107E4000B09BFECF1D9AA8958150A9F7CC24DD24C4
:107E500088248394B5E0AB2EA1E19A2EF3E0BF2EE7
:107E6000A2D0813461F49FD0082FAFD0023811F036
:107E7000013811F484E001C083E08DD089C08234E0
:107E800011F484E103C0853419F485E0A6D080C0E4
:107E9000853579F488D0E82EFF2485D0082F10E0AE
:107EA000102F00270E291F29000F111F8ED06801E7
:107EB0006FC0863521F484E090D080E0DECF843638
:107EC00009F040C070D06FD0082F6DD080E0C81688
:107ED00080E7D80618F4F601B7BEE895C0E0D1E017
:107EE00062D089930C17E1F7F0E0CF16F0E7DF06D8
:107EF00018F0F601B7BEE89568D007B600FCFDCFD4
:107F0000A601A0E0B1E02C9130E011968C91119780
:107F100090E0982F8827822B932B1296FA010C0160
:107F200087BEE89511244E5F5F4FF1E0A038BF0790
:107F300051F7F601A7BEE89507B600FCFDCF97BE46
:107F4000E89526C08437B1F42ED02DD0F82E2BD052
:107F50003CD0F601EF2C8F010F5F1F4F84911BD097
:107F6000EA94F801C1F70894C11CD11CFA94CF0C13
:107F7000D11C0EC0853739F428D08EE10CD085E9AC
:107F80000AD08FE07ACF813511F488E018D01DD067
:107F900080E101D065CF982F8091C00085FFFCCF94
:107FA0009093C60008958091C00087FFFCCF809118
:107FB000C00084FD01C0A8958091C6000895E0E648
:107FC000F0E098E1908380830895EDDF803219F02E
:107FD00088E0F5DFFFCF84E1DECF1F93182FE3DFCA
:107FE0001150E9F7F2DF1F91089580E0E8DFEE27F6
:047FF000FF270994CA
:027FFE00040479
:00000001FF
