:020000040000FA
:100000000C9452010C947A010C947A010C947A01AC
:100010000C947A010C947A010C947A010C947A0174
:100020000C947A010C947A010C947A010C947A0164
:100030000C947A010C947A010C947A010C947A0154
:100040000C9463050C947A010C947A010C947A0157
:100050000C947A010C947A010C947A010C947A0134
:100060000C947A010C947A01000000000000005FFB
:1000700000000007000700147F147F14242A7F2A41
:10008000122313086462364955225000050300000C
:10009000001C2241000041221C0014083E081408E4
:1000A000083E0808005030000008080808080060F2
:1000B00060000020100804023E5149453E00427F86
:1000C000400042615149462141454B311814127F8D
:1000D0001027454545393C4A494930017109050316
:1000E0003649494936064949291E0036360000007E
:1000F0005636000008142241001414141414004150
:100100002214080201510906324979413E7E11113B
:10011000117E7F494949363E414141227F4141227A
:100120001C7F494949417F090909013E4149497AF2
:100130007F0808087F00417F41002040413F017F48
:10014000081422417F404040407F020C027F7F0420
:1001500008107F3E4141413E7F090909063E415159
:10016000215E7F09192946464949493101017F012C
:10017000013F4040403F1F2040201F3F4038403F4C
:100180006314081463070870080761514945430068
:100190007F41410002040810200041417F00040219
:1001A0000102044040404040000102040020545439
:1001B00054787F48444438384444442038444448C0
:1001C0007F3854545418087E0901020C5252523E92
:1001D0007F0804047800447D40002040443D007FB7
:1001E0001028440000417F40007C041804787C08FB
:1001F00004047838444444387C1414140808141453
:10020000187C7C080404084854545420043F44409B
:10021000203C4040207C1C2040201C3C4030403C86
:1002200044281028440C5050503C4464544C440022
:100230000836410000007F00000041360800100829
:100240000810080000000000000000002400270043
:100250002A0000000000250028002B0000000000FC
:1002600023002600290004040404040404040202F8
:100270000202020203030303030301020408102025
:100280004080010204081020010204081020000030
:100290000008000201000003040700000000000045
:1002A0000000120811241FBECFEFD8E0DEBFCDBF83
:1002B00011E0A0E0B1E0EAE7F5E102C005900D929F
:1002C000A235B107D9F721E0A2E5B1E001C01D9246
:1002D000AA3BB207E1F711E0C2E5D1E004C02197E3
:1002E000FE010E94B50AC135D107C9F70E94AD05CC
:1002F0000C94BB0A0C940000833081F028F4813008
:1003000099F08230A9F008958730A9F08830C9F0BB
:100310008430B1F4809180008F7D03C08091800093
:100320008F7780938000089584B58F7784BD08957A
:1003300084B58F7DFBCF8091B0008F778093B00024
:1003400008958091B0008F7DF9CFCF93DF93282F50
:1003500030E0F901E257FD4F8491F901E658FD4F75
:10036000D491F901EA59FD4FC491CC23A1F0811138
:100370000E947C01EC2FF0E0EE0FFF1FE45AFD4FCE
:10038000A591B491EC91ED2381E090E009F480E037
:10039000DF91CF91089580E090E0FACF1F93CF9343
:1003A000DF93282F30E0F901E257FD4F8491F901E6
:1003B000E658FD4FD491F901EA59FD4FC491CC2381
:1003C000A9F0162F81110E947C01EC2FF0E0EE0FB6
:1003D000FF1FEE5AFD4FA591B4918FB7F894EC91A1
:1003E000111108C0D095DE23DC938FBFDF91CF9130
:1003F0001F910895DE2BF8CFCF93DF9390E0FC019F
:10040000E658FD4F24918A599D4FFC018491882321
:10041000D1F090E0880F991FFC01E85BFD4FA5919A
:10042000B491FC01EE5AFD4FC591D491623071F444
:100430009FB7F8943C91822F809583238C93E88119
:100440002E2B28839FBFDF91CF9108958FB7F8940B
:10045000EC912E2B2C938FBFF6CF3FB7F894809161
:10046000670190916801A0916901B0916A0126B578
:10047000A89B05C02F3F19F00196A11DB11D3FBFDC
:10048000BA2FA92F982F8827BC01CD01620F711DAB
:10049000811D911D42E0660F771F881F991F4A95A5
:1004A000D1F708958F929F92AF92BF92CF92DF9231
:1004B000EF92FF920E942D024B015C0184E6C82E50
:1004C000D12CE12CF12C0E942D02681979098A099E
:1004D0009B09683E734081059105A8F321E0C21A8B
:1004E000D108E108F10888EE880E83E0981EA11C6F
:1004F000B11CC114D104E104F10429F7FF90EF907D
:10050000DF90CF90BF90AF909F908F900895AF9263
:10051000BF92CF92DF92EF92FF920F931F93CF93F0
:10052000DF936C017B018B01040F151FEB015E0152
:10053000AE18BF08C017D10759F06991D601ED91E7
:10054000FC910190F081E02DC6010995892B79F786
:10055000C501DF91CF911F910F91FF90EF90DF9038
:10056000CF90BF90AF900895089590E080E00895F7
:100570008E50806480937C0080917A0080648093A8
:100580007A0080917A0086FDFCCF609178007091AE
:100590007900072E000C880B990B0E94440920E07B
:1005A00030E040EA50E40E94F90925EB38EC44EDD4
:1005B00052E40E94A10825EC3EE440EC51E40E9484
:1005C0002F0808958F929F92AF92BF92CF92DF92A1
:1005D000EF92FF92CF93DF93EC010E94B80220E0EC
:1005E00030E0A9010E94F4091816ACF4CE010E9473
:1005F000B8024B015C01CE010E94B80220E030E05D
:10060000A9010E94F409181684F4CE010E94B802D0
:100610006B017C0113C0CE010E94B8024B015C014A
:10062000B7FAB094B7F8B094E6CFCE010E94B80202
:100630006B017C01F7FAF094F7F8F094A7019601AA
:10064000C501B4010E949C0887FF31C0CE010E9401
:10065000B80220E030E0A9010E94F4091816ECF479
:10066000CE010E94B8024B015C01A5019401C701B3
:10067000B6010E94F40987FD0DC0C701B601DF91E4
:10068000CF91FF90EF90DF90CF90BF90AF909F9071
:100690008F90089575016401D9CFCE010E94B802F0
:1006A0004B015C01B7FAB094B7F8B094DECFCE013D
:1006B0000E94B80220E030E0A9010E94F409181657
:1006C00034F4CE010E94B80246015701A1CFCE01F9
:1006D0000E94B8029058F8CFFC0101900020E9F781
:1006E0003197AF01481B590BBC018BE691E00C948C
:1006F00087028F929F92AF92BF920F931F93CF93D7
:10070000DF93CDB7DEB7A1970FB6F894DEBF0FBE6B
:10071000CDBF19A2423008F44AE08E010F5D1F4F91
:10072000842E912CB12CA12CA50194010E947F0A4A
:10073000E62FB901CA01EA30F4F4E05DD801EE9386
:100740008D01232B242B252B79F790E080E0109747
:1007500019F0CD010E946C03A1960FB6F894DEBF8C
:100760000FBECDBFDF91CF911F910F91BF90AF9082
:100770009F908F900895E95CE1CFEF92FF920F93E5
:100780001F93CF93DF93EC01042F8E810E94CE0143
:1007900060E088850E94CE01FC80ED8018E0602F2B
:1007A000661F6627661F8E2D0E94CE01000F61E036
:1007B0008F2D0E94CE0160E08F2D0E94CE0111503E
:1007C00071F761E08885DF91CF911F910F91FF90C4
:1007D000EF900C94CE01CF93DF93CBE6D1E01C8653
:1007E00090E06B8529E3629F612D1124669570E08E
:1007F0006F5F7F4F0E946B0A8D8740E860E0CE01FB
:100800000E94BD034D85406460E0CE01DF91CF9131
:100810000C94BD03CF92DF92EF92FF920F931F9340
:10082000CF93DF9300D000D01F92CDB7DEB767FD26
:100830006BC07C01862F90E0603208F455C0809731
:1008400025E0289FB001299F700D112468597F4F22
:1008500045E050E0CE0101960E9426088E010F5F10
:100860001F4F680185E0C80ED11CF80141918F012E
:10087000F70186858111409561E0C7010E94BD03A3
:100880000C151D0591F7F7014685419561E0C701FB
:100890000E94BD03F701848590E00696628570E0B2
:1008A0000E946B0A8487892B79F4858590E00196F4
:1008B000638529E3629F612D1124669570E06F5F67
:1008C0007F4F0E946B0A858781E090E00F900F9028
:1008D0000F900F900F90DF91CF911F910F91FF908C
:1008E000EF90DF90CF900895880F991FF701E80FE0
:1008F000F91F078510890115110509F0B2CF45E0F0
:1009000050E068E670E0A6CF90E080E0DFCF4F9245
:100910005F926F927F928F929F92AF92BF92CF928F
:10092000DF92EF92FF920F931F93CF936B017C01A5
:10093000742EAC019B010E94660A882399F08CE01A
:1009400091E0CF911F910F91FF90EF90DF90CF90AA
:10095000BF90AF909F908F907F906F905F904F90DF
:100960000C946C0346015701E894B7F82FEF3FEF62
:100970004FE75FE7C501B4010E94660A81110DC00F
:100980002FEF3FEF4FE75FE7C501B4010E949C08DE
:1009900018161CF480E191E0D4CF2FEF3FEF4FE722
:1009A0005FE4C701B6010E94F40918161CF484E143
:1009B00091E0C7CF2FEF3FEF4FE75FECC701B601E4
:1009C0000E949C0887FDF3CF20E030E0A901C70119
:1009D000B6010E949C0810E000E087FF0AC06DE2AB
:1009E0008BE691E00E940A048C01F7FAF094F7F884
:1009F000F094C0E060E070E080E09FE37C1641F09E
:100A000020E030E040E251E40E94A108CF5FF6CF41
:100A1000A70196010E9430082B013C010E94130996
:100A20004B015C014AE00E9479037C01E00EF11E5B
:100A3000CC23C1F1C501B4010E9442099B01AC0164
:100A4000C301B2010E942F084B015C016EE28BE6EC
:100A500091E00E940A04E80EF91EC15018F120E04E
:100A600030E040E251E4C501B4010E94F9092B01D4
:100A70003C010E9413094B01B12CA12C4AE0C50195
:100A8000B4010E947903E80EF91EC501B4010E9469
:100A900042099B01AC01C301B2010E942F084B0126
:100AA0005C01DBCFC701CF911F910F91FF90EF90B9
:100AB000DF90CF90BF90AF909F908F907F906F907E
:100AC0005F904F9008951F920F920FB60F921124CE
:100AD0002F933F938F939F93AF93BF938091630125
:100AE00090916401A0916501B0916601309162011D
:100AF00023E0230F2D3758F50196A11DB11D20933A
:100B000062018093630190936401A0936501B093A7
:100B100066018091670190916801A0916901B0918F
:100B20006A010196A11DB11D809367019093680130
:100B3000A0936901B0936A01BF91AF919F918F918A
:100B40003F912F910F900FBE0F901F90189526E8A0
:100B5000230F0296A11DB11DD2CFCF93DF93CDB746
:100B6000DEB728970FB6F894DEBF0FBECDBF7894DE
:100B700084B5826084BD84B5816084BD85B58260A2
:100B800085BD85B5816085BD80916E008160809353
:100B90006E001092810080918100826080938100BC
:100BA00080918100816080938100809180008160CC
:100BB000809380008091B10084608093B100809127
:100BC000B00081608093B00080917A00846080934F
:100BD0007A0080917A00826080937A0080917A0016
:100BE000816080937A0080917A00806880937A0097
:100BF0001092C10062E088E00E94FC0162E089E09E
:100C00000E94FC0184E58093750180E38093760166
:100C1000109274011092770110927801EAE7F1E0E6
:100C200080E4DF011D928A95E9F761E080916F0110
:100C30000E94FC0161E0809170010E94FC0161E072
:100C4000809171010E94FC0161E0809172010E941B
:100C5000FC0161E0809173010E94FC0161E08091E0
:100C600072010E94CE0161E0809173010E94CE0169
:100C700060E0809172010E94CE010E94520261E008
:100C8000809172010E94CE0141E260E08BE691E02A
:100C90000E94BD0343E160E08BE691E00E94BD034A
:100CA0008091740142EC813039F440EE60E08BE6D3
:100CB00091E00E94BD0345E060E08BE691E00E9478
:100CC000BD0340E260E08BE691E00E94BD0349E095
:100CD00060E08BE691E00E94BD0380E00E94EB03A0
:100CE0001A821982809176018695869586959091D3
:100CF0007501899FC001112429813A81281739077C
:100D000060F440E061E08BE691E00E94BD038981E0
:100D10009A8101969A838983E5CF80E00E94EB0354
:100D200048E060E08BE691E00E94BD034CE060E0AB
:100D30008BE691E00E94BD030E94520240E860E011
:100D40008BE691E00E94BD0340E460E08BE691E019
:100D50000E94BD0300E010E089E00E94A5019A8393
:100D6000898388E00E94A5018EE090E00E94B8028D
:100D70006D837E838F8398878FE090E00E94B80216
:100D80006B017C0180E190E00E94B8024B015C01A4
:100D900081E190E00E94B8022B013C01A981BA8157
:100DA000AB2B09F447C080E00E94EB0388E191E09F
:100DB0000E946C0381E00E94EB0384E291E00E94B8
:100DC0006C0382E00E94EB038DE391E00E946C03D0
:100DD00042E0C301B2010E94870483E00E94EB035A
:100DE00082E491E00E946C0342E0C501B4010E94DC
:100DF000870484E00E94EB0387E491E00E946C0387
:100E000042E0C701B6010E94870485E00E94EB031F
:100E10008CE491E00E946C0342E06D817E818F81C1
:100E200098850E9487040115110509F495CF0E9449
:100E3000000092CF8EE090E00E94E2026B017C0104
:100E400080905E0190905F01A0906001B090610180
:100E5000A50194010E94F409181674F0A7019601E7
:100E6000C501B4010E942F0820E030E040E85FE3B4
:100E70000E94F409181644F4C0925E01D0925F01FA
:100E8000E0926001F092610123EF34E045EB5FE313
:100E900060915E0170915F018091600190916101AC
:100EA0000E94A1086D837E838F8398878FE090E0F6
:100EB0000E94E2026B017C0180905A0190905B01DC
:100EC000A0905C01B0905D01A50194010E94F4091D
:100ED000181674F0A7019601C501B4010E942F08ED
:100EE00020E030E040E85FE30E94F409181644F483
:100EF000C0925A01D0925B01E0925C01F0925D01D8
:100F000023EF34E045EB5FE360915A0170915B01A0
:100F100080915C0190915D010E94A1086B017C01B0
:100F200080E190E00E94E2024B015C01409056019A
:100F3000509057016090580170905901A30192019F
:100F40000E94F409181674F0A5019401C301B201BE
:100F50000E942F0820E030E040E85FE30E94F4099F
:100F6000181644F48092560190925701A0925801AD
:100F7000B092590123EF34E045EB5FE360915601F5
:100F80007091570180915801909159010E94A108D8
:100F90004B015C0181E190E00E94E2022B013C01E7
:100FA0008091520190915301A0915401B09155014B
:100FB00089839A83AB83BC839C01AD01C301B201D9
:100FC0000E94F409181684F0A301920169817A81C4
:100FD0008B819C810E942F0820E030E040E85FE395
:100FE0000E94F409181644F44092520150925301A1
:100FF000609254017092550123EF34E045EB5FE3BA
:10100000609152017091530180915401909155016A
:101010000E94A1082B013C0180E00E94EB0381E3C8
:1010200091E0C6CEEBE6F1E01382128284E091E01B
:101030009183808383E0848384E0858385E0868355
:1010400086E0878387E0808716860895FB01DC01B0
:1010500002C005900D9241505040D8F70895505865
:10106000BB27AA270E9447080C94BA090E94AC0922
:1010700038F00E94B30920F039F49F3F19F426F4A8
:101080000C94A9090EF4E095E7FB0C94A309E92F51
:101090000E94CB0958F3BA176207730784079507B4
:1010A00020F079F4A6F50C94ED090EF4E0950B2EE2
:1010B000BA2FA02D0B01B90190010C01CA01A001AA
:1010C0001124FF27591B99F0593F50F4503E68F105
:1010D0001A16F040A22F232F342F4427585FF3CF46
:1010E000469537952795A795F0405395C9F77EF417
:1010F0001F16BA0B620B730B840BBAF09150A1F060
:10110000FF0FBB1F661F771F881FC2F70EC0BA0FE5
:10111000621F731F841F48F4879577956795B7956D
:10112000F7959E3F08F0B0CF9395880F08F0992768
:10113000EE0F9795879508950E947F0908F481E046
:1011400008950E94B5080C94BA090E94B30958F09A
:101150000E94AC0940F029F45F3F29F00C94A309E8
:1011600051110C94EE090C94A9090E94CB0968F363
:101170009923B1F3552391F3951B550BBB27AA2750
:1011800062177307840738F09F5F5F4F220F331F8A
:10119000441FAA1FA9F335D00E2E3AF0E0E832D052
:1011A00091505040E695001CCAF72BD0FE2F29D055
:1011B000660F771F881FBB1F261737074807AB0727
:1011C000B0E809F0BB0B802DBF01FF2793585F4F9C
:1011D0003AF09E3F510578F00C94A3090C94EE0967
:1011E0005F3FE4F3983ED4F3869577956795B7957E
:1011F000F7959F5FC9F7880F911D9695879597F989
:101200000895E1E0660F771F881FBB1F6217730701
:101210008407BA0720F0621B730B840BBA0BEE1F16
:1012200088F7E09508950E94D30988F09F5798F0B9
:10123000B92F9927B751B0F0E1F0660F771F881FDB
:10124000991F1AF0BA95C9F714C0B13091F00E94F5
:10125000ED09B1E008950C94ED09672F782F8827E8
:10126000B85F39F0B93FCCF3869577956795B3951C
:10127000D9F73EF490958095709561957F4F8F4F8B
:101280009F4F0895E89409C097FB3EF49095809590
:10129000709561957F4F8F4F9F4F9923A9F0F92F3C
:1012A00096E9BB279395F695879577956795B795BA
:1012B000F111F8CFFAF4BB0F11F460FF1BC06F5FA0
:1012C0007F4F8F4F9F4F16C0882311F096E911C0B2
:1012D000772321F09EE8872F762F05C0662371F0D3
:1012E00096E8862F70E060E02AF09A95660F771FE7
:1012F000881FDAF7880F9695879597F90895990FC3
:101300000008550FAA0BE0E8FEEF16161706E807CF
:10131000F907C0F012161306E407F50798F0621BF0
:10132000730B840B950B39F40A2661F0232B242BC5
:10133000252B21F408950A2609F4A140A6958FEFE4
:10134000811D811D089597F99F6780E870E060E036
:1013500008959FEF80EC089500240A94161617064E
:1013600018060906089500240A9412161306140696
:1013700005060895092E0394000C11F4882352F0F9
:10138000BB0F40F4BF2B11F460FF04C06F5F7F4FB1
:101390008F4F9F4F089557FD9058440F551F59F098
:1013A0005F3F71F04795880F97FB991F61F09F3F52
:1013B00079F087950895121613061406551FF2CF7B
:1013C0004695F1DF08C0161617061806991FF1CFCB
:1013D00086957105610508940895E894BB276627F2
:1013E0007727CB0197F908950E947F0908F48FEFC2
:1013F00008950E940C0A0C94BA090E94AC0938F0B6
:101400000E94B30920F0952311F00C94A3090C94C9
:10141000A90911240C94EE090E94CB0970F3959F41
:10142000C1F3950F50E0551F629FF001729FBB27DB
:10143000F00DB11D639FAA27F00DB11DAA1F649F77
:101440006627B00DA11D661F829F2227B00DA11D2A
:10145000621F739FB00DA11D621F839FA00D611DB0
:10146000221F749F3327A00D611D231F849F600DD1
:10147000211D822F762F6A2F11249F5750409AF0FA
:10148000F1F088234AF0EE0FFF1FBB1F661F771F86
:10149000881F91505040A9F79E3F510580F00C9451
:1014A000A3090C94EE095F3FE4F3983ED4F38695CC
:1014B00077956795B795F795E7959F5FC1F7FE2BF1
:1014C000880F911D9695879597F908950E947F0939
:1014D000880B990B089597FB072E16F4009407D0FC
:1014E00077FD09D00E94A10A07FC05D03EF4909533
:1014F00081959F4F0895709561957F4F0895A1E262
:101500001A2EAA1BBB1BFD010DC0AA1FBB1FEE1F7D
:10151000FF1FA217B307E407F50720F0A21BB30BC8
:10152000E40BF50B661F771F881F991F1A9469F744
:1015300060957095809590959B01AC01BD01CF01A0
:101540000895AA1BBB1B51E107C0AA1FBB1FA6170A
:10155000B70710F0A61BB70B881F991F5A95A9F75C
:1015600080959095BC01CD010895EE0FFF1F059069
:10157000F491E02D0994F894FFCF000000000A04D4
:101580008702B502B4026E616E00696E66006F7606
:101590006600444320566F6C7461676573002D2D9F
:1015A0002D2D2D2D2D2D2D2D2D2D00414320566F10
:1015B0006C74616765730056313A200056323A20E8
:0C15C0000056333A200056343A20000058
:107E0000112484B714BE81FFF0D085E080938100F7
:107E100082E08093C00088E18093C10086E0809377
:107E2000C20080E18093C4008EE0C9D0259A86E02C
:107E300020E33CEF91E0309385002093840096BBD3
:107E4000B09BFECF1D9AA8958150A9F7CC24DD24C4
:107E500088248394B5E0AB2EA1E19A2EF3E0BF2EE7
:107E6000A2D0813461F49FD0082FAFD0023811F036
:107E7000013811F484E001C083E08DD089C08234E0
:107E800011F484E103C0853419F485E0A6D080C0E4
:107E9000853579F488D0E82EFF2485D0082F10E0AE
:107EA000102F00270E291F29000F111F8ED06801E7
:107EB0006FC0863521F484E090D080E0DECF843638
:107EC00009F040C070D06FD0082F6DD080E0C81688
:107ED00080E7D80618F4F601B7BEE895C0E0D1E017
:107EE00062D089930C17E1F7F0E0CF16F0E7DF06D8
:107EF00018F0F601B7BEE89568D007B600FCFDCFD4
:107F0000A601A0E0B1E02C9130E011968C91119780
:107F100090E0982F8827822B932B1296FA010C0160
:107F200087BEE89511244E5F5F4FF1E0A038BF0790
:107F300051F7F601A7BEE89507B600FCFDCF97BE46
:107F4000E89526C08437B1F42ED02DD0F82E2BD052
:107F50003CD0F601EF2C8F010F5F1F4F84911BD097
:107F6000EA94F801C1F70894C11CD11CFA94CF0C13
:107F7000D11C0EC0853739F428D08EE10CD085E9AC
:107F80000AD08FE07ACF813511F488E018D01DD067
:107F900080E101D065CF982F8091C00085FFFCCF94
:107FA0009093C60008958091C00087FFFCCF809118
:107FB000C00084FD01C0A8958091C6000895E0E648
:107FC000F0E098E1908380830895EDDF803219F02E
:107FD00088E0F5DFFFCF84E1DECF1F93182FE3DFCA
:107FE0001150E9F7F2DF1F91089580E0E8DFEE27F6
:047FF000FF270994CA
:027FFE00040479
:00000001FF
