:020000040000FA
:100000000C9452010C947A010C947A010C947A01AC
:100010000C947A010C947A010C947A010C947A0174
:100020000C947A010C947A010C947A010C947A0164
:100030000C947A010C947A010C947A010C947A0154
:100040000C946A050C947A010C947A010C947A0150
:100050000C947A010C947A010C947A010C947A0134
:100060000C947A010C947A01000000000000005FFB
:1000700000000007000700147F147F14242A7F2A41
:10008000122313086462364955225000050300000C
:10009000001C2241000041221C0014083E081408E4
:1000A000083E0808005030000008080808080060F2
:1000B00060000020100804023E5149453E00427F86
:1000C000400042615149462141454B311814127F8D
:1000D0001027454545393C4A494930017109050316
:1000E0003649494936064949291E0036360000007E
:1000F0005636000008142241001414141414004150
:100100002214080201510906324979413E7E11113B
:10011000117E7F494949363E414141227F4141227A
:100120001C7F494949417F090909013E4149497AF2
:100130007F0808087F00417F41002040413F017F48
:10014000081422417F404040407F020C027F7F0420
:1001500008107F3E4141413E7F090909063E415159
:10016000215E7F09192946464949493101017F012C
:10017000013F4040403F1F2040201F3F4038403F4C
:100180006314081463070870080761514945430068
:100190007F41410002040810200041417F00040219
:1001A0000102044040404040000102040020545439
:1001B00054787F48444438384444442038444448C0
:1001C0007F3854545418087E0901020C5252523E92
:1001D0007F0804047800447D40002040443D007FB7
:1001E0001028440000417F40007C041804787C08FB
:1001F00004047838444444387C1414140808141453
:10020000187C7C080404084854545420043F44409B
:10021000203C4040207C1C2040201C3C4030403C86
:1002200044281028440C5050503C4464544C440022
:100230000836410000007F00000041360800100829
:100240000810080000000000000000002400270043
:100250002A0000000000250028002B0000000000FC
:1002600023002600290004040404040404040202F8
:100270000202020203030303030301020408102025
:100280004080010204081020010204081020000030
:100290000008000201000003040700000000000045
:1002A00000000B0911241FBECFEFD8E0DEBFCDBF89
:1002B00011E0A0E0B1E0ECE6F7E102C005900D929C
:1002C000A235B107D9F721E0A2E5B1E001C01D9246
:1002D000AA3BB207E1F711E0C2E5D1E004C02197E3
:1002E000FE010E94AE0BC135D107C9F70E94B405CB
:1002F0000C94B40B0C940000833081F028F481300E
:1003000099F08230A9F008958730A9F08830C9F0BB
:100310008430B1F4809180008F7D03C08091800093
:100320008F7780938000089584B58F7784BD08957A
:1003300084B58F7DFBCF8091B0008F778093B00024
:1003400008958091B0008F7DF9CFCF93DF93282F50
:1003500030E0F901E257FD4F8491F901E658FD4F75
:10036000D491F901EA59FD4FC491CC23A1F0811138
:100370000E947C01EC2FF0E0EE0FFF1FE45AFD4FCE
:10038000A591B491EC91ED2381E090E009F480E037
:10039000DF91CF91089580E090E0FACF1F93CF9343
:1003A000DF93282F30E0F901E257FD4F8491F901E6
:1003B000E658FD4FD491F901EA59FD4FC491CC2381
:1003C000A9F0162F81110E947C01EC2FF0E0EE0FB6
:1003D000FF1FEE5AFD4FA591B4918FB7F894EC91A1
:1003E000111108C0D095DE23DC938FBFDF91CF9130
:1003F0001F910895DE2BF8CFCF93DF9390E0FC019F
:10040000E658FD4F24918A599D4FFC018491882321
:10041000D1F090E0880F991FFC01E85BFD4FA5919A
:10042000B491FC01EE5AFD4FC591D491623071F444
:100430009FB7F8943C91822F809583238C93E88119
:100440002E2B28839FBFDF91CF9108958FB7F8940B
:10045000EC912E2B2C938FBFF6CF3FB7F894809161
:10046000670190916801A0916901B0916A0126B578
:10047000A89B05C02F3F19F00196A11DB11D3FBFDC
:10048000BA2FA92F982F8827BC01CD01620F711DAB
:10049000811D911D42E0660F771F881F991F4A95A5
:1004A000D1F708958F929F92AF92BF92CF92DF9231
:1004B000EF92FF920E942D024B015C0184E6C82E50
:1004C000D12CE12CF12C0E942D02681979098A099E
:1004D0009B09683E734081059105A8F321E0C21A8B
:1004E000D108E108F10888EE880E83E0981EA11C6F
:1004F000B11CC114D104E104F10429F7FF90EF907D
:10050000DF90CF90BF90AF909F908F900895AF9263
:10051000BF92CF92DF92EF92FF920F931F93CF93F0
:10052000DF936C017B018B01040F151FEB015E0152
:10053000AE18BF08C017D10759F06991D601ED91E7
:10054000FC910190F081E02DC6010995892B79F786
:10055000C501DF91CF911F910F91FF90EF90DF9038
:10056000CF90BF90AF900895089590E080E00895F7
:100570008E50806480937C0080917A0080648093A8
:100580007A0080917A0086FDFCCF609178007091AE
:100590007900072E000C880B990B0E943D0A20E081
:1005A00030E040EA50E40E94F20A25EB38EC44EDDA
:1005B00052E40E949A0925EC3EE440EC51E40E948A
:1005C000280908958F929F92AF92BF92CF92DF92A7
:1005D000EF92FF92CF93DF93EC010E94B80220E0EC
:1005E00030E0A9010E94ED0A1816ACF4CE010E9479
:1005F000B8026B017C01CE010E94B80220E030E01D
:10060000A9010E94ED0A181684F4CE010E94B802D6
:100610004B015C0113C0CE010E94B8026B017C014A
:10062000F7FAF094F7F8F094E6CFCE010E94B80202
:100630004B015C01B7FAB094B7F8B094A5019401EE
:10064000C701B6010E94950987FF30C0750164019A
:10065000CE010E94B80220E030E0A9010E94ED0A1C
:100660001816D4F4CE010E94B8024B015C01A5011A
:100670009401C701B6010E94ED0A87FDE7CFC701CB
:10068000B601DF91CF91FF90EF90DF90CF90BF90B8
:10069000AF909F908F900895CE010E94B8024B01B9
:1006A0005C01B7FAB094B7F8B094E1CFA50194011A
:1006B000C701B6010E949509882309F3CE010E9463
:1006C000B80220E030E0A9010E94ED0A181634F4C7
:1006D000CE010E94B802750164019ACFCE010E943A
:1006E000B8029058F8CFFC0101900020E9F731974B
:1006F000AF01481B590BBC018BE691E00C948702BB
:100700008F929F92AF92BF920F931F93CF93DF93DD
:10071000CDB7DEB7A1970FB6F894DEBF0FBECDBF41
:1007200019A2423008F44AE08E010F5D1F4F842E5B
:10073000912CB12CA12CA50194010E94780BE62FDD
:10074000B901CA01EA30F4F4E05DD801EE938D01FD
:10075000232B242B252B79F790E080E0109719F0BC
:10076000CD010E947303A1960FB6F894DEBF0FBEB1
:10077000CDBFDF91CF911F910F91BF90AF909F9010
:100780008F900895E95CE1CFEF92FF920F931F9352
:10079000CF93DF93EC01042F8E810E94CE0160E0A5
:1007A00088850E94CE01FC80ED8018E0602F661FD6
:1007B0006627661F8E2D0E94CE01000F61E08F2DEF
:1007C0000E94CE0160E08F2D0E94CE01115071F782
:1007D00061E08885DF91CF911F910F91FF90EF909D
:1007E0000C94CE01CF93DF93CBE6D1E01C8690E052
:1007F0006B8529E3629F612D1124669570E06F5F20
:100800007F4F0E94640B8D8740E860E0CE010E941C
:10081000C4034D85406460E0CE01DF91CF910C941C
:10082000C403CF92DF92EF92FF920F931F93CF9367
:10083000DF9300D000D01F92CDB7DEB767FD6BC04D
:100840007C01862F90E0603208F455C0809725E047
:10085000289FB001299F700D112468597F4F45E0F2
:1008600050E0CE0101960E941F098E010F5F1F4FBD
:10087000680185E0C80ED11CF80141918F01F70194
:1008800086858111409561E0C7010E94C4030C1563
:100890001D0591F7F7014685419561E0C7010E946A
:1008A000C403F701848590E00696628570E00E949B
:1008B000640B8487892B79F4858590E001966385A4
:1008C00029E3629F612D1124669570E06F5F7F4F71
:1008D0000E94640B858781E090E00F900F900F904D
:1008E0000F900F90DF91CF911F910F91FF90EF909C
:1008F000DF90CF900895880F991FF701E80FF91F37
:10090000078510890115110509F0B2CF45E050E0C7
:1009100068E670E0A6CF90E080E0DFCF4F925F9274
:100920006F927F928F929F92AF92BF92CF92DF92FF
:10093000EF92FF920F931F93CF936B017C01742E64
:10094000AC019B010E945F0B882399F08CE091E041
:10095000CF911F910F91FF90EF90DF90CF90BF90BC
:10096000AF909F908F907F906F905F904F900C947E
:10097000730346015701E894B7F82FEF3FEF4FE7B5
:100980005FE7C501B4010E945F0B81110DC02FEF1D
:100990003FEF4FE75FE7C501B4010E9495091816C4
:1009A0001CF480E191E0D4CF2FEF3FEF4FE75FE4FD
:1009B000C701B6010E94ED0A18161CF484E191E00B
:1009C000C7CF2FEF3FEF4FE75FECC701B6010E94A3
:1009D000950987FDF3CF20E030E0A901C701B601FA
:1009E0000E94950910E000E087FF0AC06DE28BE6E7
:1009F00091E00E9411048C01F7FAF094F7F8F0945A
:100A0000C0E060E070E080E09FE37C1641F020E011
:100A100030E040E251E40E949A09CF5FF6CFA7018F
:100A200096010E9429092B013C010E940C0A4B01EE
:100A30005C014AE00E9480037C01E00EF11ECC23A1
:100A4000C1F1C501B4010E943B0A9B01AC01C30185
:100A5000B2010E9428094B015C016EE28BE691E035
:100A60000E941104E80EF91EC15018F120E030E098
:100A700040E251E4C501B4010E94F20A2B013C019D
:100A80000E940C0A4B01B12CA12C4AE0C501B40113
:100A90000E948003E80EF91EC501B4010E943B0AC2
:100AA0009B01AC01C301B2010E9428094B015C010A
:100AB000DBCFC701CF911F910F91FF90EF90DF9097
:100AC000CF90BF90AF909F908F907F906F905F90EE
:100AD0004F9008951F920F920FB60F9211242F93EB
:100AE0003F938F939F93AF93BF93809163019091B6
:100AF0006401A0916501B09166013091620123E02B
:100B0000230F2D3758F50196A11DB11D20936201C9
:100B10008093630190936401A0936501B093660193
:100B20008091670190916801A0916901B0916A017B
:100B30000196A11DB11D8093670190936801A09358
:100B40006901B0936A01BF91AF919F918F913F91DD
:100B50002F910F900FBE0F901F90189526E8230F2E
:100B60000296A11DB11DD2CFCF93DF93CDB7DEB7D3
:100B700064970FB6F894DEBF0FBECDBF789484B5EE
:100B8000826084BD84B5816084BD85B5826085BD89
:100B900085B5816085BD80916E00816080936E0017
:100BA0001092810080918100826080938100809109
:100BB00081008160809381008091800081608093BA
:100BC00080008091B10084608093B1008091B0007A
:100BD00081608093B00080917A00846080937A0075
:100BE00080917A00826080937A0080917A0081609F
:100BF00080937A0080917A00806880937A001092C6
:100C0000C10062E088E00E94FC0162E089E00E948D
:100C1000FC0161E08AE00E94FC0161E08BE00E943F
:100C2000FC0161E08CE00E94FC0161E08DE00E942B
:100C3000FC0184E58093750180E380937601109236
:100C400074011092770110927801EAE7F1E080E4F4
:100C5000DF011D928A95E9F761E080916F010E94A2
:100C6000FC0161E0809170010E94FC0161E08091D3
:100C700071010E94FC0161E0809172010E94FC01FF
:100C800061E0809173010E94FC0161E0809172013A
:100C90000E94CE0161E0809173010E94CE0160E06C
:100CA000809172010E94CE010E94520261E0809107
:100CB00072010E94CE0141E260E08BE691E00E9469
:100CC000C40343E160E08BE691E00E94C40380919D
:100CD000740142EC813039F440EE60E08BE691E043
:100CE0000E94C40345E060E08BE691E00E94C403EB
:100CF00040E260E08BE691E00E94C40349E060E0DE
:100D00008BE691E00E94C40380E00E94F2031A8205
:100D100019828091760186958695869590917501C8
:100D2000899FC001112429813A812817390760F46D
:100D300040E061E08BE691E00E94C40389819A81E2
:100D400001969A838983E5CF80E00E94F20348E010
:100D500060E08BE691E00E94C4034CE060E08BE62B
:100D600091E00E94C4030E94520240E860E08BE6DA
:100D700091E00E94C40340E460E08BE691E00E94B1
:100D8000C40389E00E94A5013C0188E00E94A501FE
:100D90008EE090E00E94B80269837A838B839C8303
:100DA0008FE090E00E94B8026D837E838F839887E6
:100DB00080E190E00E94B8026B017C0181E190E04B
:100DC0000E94B8024B015C01672809F4B2C020E020
:100DD00030E040EA51E469817A818B819C810E94F4
:100DE000ED0A181664F020E030E040EA51EC698129
:100DF0007A818B819C810E94950960E087FD61E08A
:100E00008DE00E94CE0120E030E040EA51E46D81A7
:100E10007E818F8198850E94ED0A181664F020E08B
:100E200030E040EA51EC6D817E818F8198850E948F
:100E3000950960E087FD61E08CE00E94CE0120E032
:100E400030E040EA51E4C701B6010E94ED0A1816ED
:100E500054F020E030E040EA51ECC701B6010E94B6
:100E6000950960E087FD61E08BE00E94CE0120E003
:100E700030E040EA51E4C501B4010E94ED0A1816C1
:100E800054F020E030E040EA51ECC501B4010E948A
:100E9000950960E087FD61E08AE00E94CE0180E074
:100EA0000E94F20388E191E00E94730381E00E94B6
:100EB000F20384E291E00E94730382E00E94F20355
:100EC0008DE391E00E94730342E0C501B4010E94EA
:100ED0008E0483E00E94F20382E491E00E94730397
:100EE00042E0C701B6010E948E0484E00E94F20332
:100EF00087E491E00E94730342E06D817E818F81DF
:100F000098850E948E0485E00E94F2038CE491E0B3
:100F10000E94730342E069817A818B819C810E94E7
:100F20008E04A0E0B0E0AB2B09F42BCF0E940000B0
:100F300028CF8EE090E00E94E2026B017C0180905D
:100F40005E0190905F01A0906001B0906101A501E9
:100F500094010E94ED0A181674F0A7019601C501CC
:100F6000B4010E94280920E030E040E85FE30E94DD
:100F7000ED0A181644F4C0925E01D0925F01E0922F
:100F80006001F092610180915E0190915F01A091FA
:100F90006001B091610189879A87AB87BC8723EF95
:100FA00034E045EB5FE3BC01CD010E949A096983FF
:100FB0007A838B839C838FE090E00E94E2026B0136
:100FC0007C0180905A0190905B01A0905C01B090F0
:100FD0005D01A50194010E94ED0A181674F0A701A5
:100FE0009601C501B4010E94280920E030E040E8E4
:100FF0005FE30E94ED0A181644F4C0925A01D092A1
:101000005B01E0925C01F0925D0180915A01909148
:101010005B01A0915C01B0915D018D879E87AF87D8
:10102000B88B23EF34E045EB5FE3BC01CD010E94B8
:101030009A096D837E838F83988780E190E00E9478
:10104000E2026B017C018090560190905701A090C4
:101050005801B0905901A50194010E94ED0A18169B
:1010600074F0A7019601C501B4010E94280920E08F
:1010700030E040E85FE30E94ED0A181644F4C092A5
:101080005601D0925701E0925801F0925901809197
:10109000560190915701A0915801B0915901898B47
:1010A0009A8BAB8BBC8B23EF34E045EB5FE3BC0149
:1010B000CD010E949A096B017C0181E190E00E94C0
:1010C000E2024B015C01409052015090530160904C
:1010D000540170905501A30192010E94ED0A181667
:1010E00074F0A5019401C301B2010E94280920E017
:1010F00030E040E85FE30E94ED0A181644F4809265
:10110000520190925301A0925401B0925501409027
:10111000520150905301609054017090550123EF9B
:1011200034E045EB5FE3C301B2010E949A094B0131
:101130005C0120E030E040EA51E469857A858B85E6
:101140009C850E94ED0A181664F020E030E040EA29
:1011500051EC69857A858B859C850E94950960E0B4
:1011600087FD61E08DE00E94CE0120E030E040EAA2
:1011700051E46D857E858F8598890E94ED0A181649
:1011800064F020E030E040EA51EC6D857E858F858B
:1011900098890E94950960E087FD61E08CE00E94DB
:1011A000CE0120E030E040EA51E469897A898B89F8
:1011B0009C890E94ED0A181664F020E030E040EAB5
:1011C00051EC69897A898B899C890E94950960E034
:1011D00087FD61E08BE00E94CE0120E030E040EA34
:1011E00051E4C301B2010E94ED0A181654F020E048
:1011F00030E040EA51ECC301B2010E94950960E081
:1012000087FD61E08AE00E94CE0180E00E94F20347
:1012100081E391E049CEEBE6F1E01382128284E0B3
:1012200091E09183808383E0848384E0858385E0FB
:10123000868386E0878387E0808716860895FB0192
:10124000DC0102C005900D9241505040D8F708953E
:101250005058BB27AA270E9440090C94B30A0E9449
:10126000A50A38F00E94AC0A20F039F49F3F19F427
:1012700026F40C94A20A0EF4E095E7FB0C949C0A69
:10128000E92F0E94C40A58F3BA176207730784074C
:10129000950720F079F4A6F50C94E60A0EF4E09593
:1012A0000B2EBA2FA02D0B01B90190010C01CA0120
:1012B000A0011124FF27591B99F0593F50F4503ECB
:1012C00068F11A16F040A22F232F342F4427585FBD
:1012D000F3CF469537952795A795F0405395C9F7D5
:1012E0007EF41F16BA0B620B730B840BBAF091508D
:1012F000A1F0FF0FBB1F661F771F881FC2F70EC02C
:10130000BA0F621F731F841F48F4879577956795FE
:10131000B795F7959E3F08F0B0CF9395880F08F0EA
:101320009927EE0F9795879508950E94780A08F4FB
:1013300081E008950E94AE090C94B30A0E94AC0AA1
:1013400058F00E94A50A40F029F45F3F29F00C9460
:101350009C0A51110C94E70A0C94A20A0E94C40A38
:1013600068F39923B1F3552391F3951B550BBB27D4
:10137000AA2762177307840738F09F5F5F4F220F19
:10138000331F441FAA1FA9F335D00E2E3AF0E0E810
:1013900032D091505040E695001CCAF72BD0FE2F5A
:1013A00029D0660F771F881FBB1F261737074807EE
:1013B000AB07B0E809F0BB0B802DBF01FF279358A6
:1013C0005F4F3AF09E3F510578F00C949C0A0C94C4
:1013D000E70A5F3FE4F3983ED4F3869577956795E7
:1013E000B795F7959F5FC9F7880F911D96958795DB
:1013F00097F90895E1E0660F771F881FBB1F6217FA
:1014000073078407BA0720F0621B730B840BBA0BB7
:10141000EE1F88F7E09508950E94CC0A88F09F5748
:1014200098F0B92F9927B751B0F0E1F0660F771F08
:10143000881F991F1AF0BA95C9F714C0B13091F0FE
:101440000E94E60AB1E008950C94E60A672F782F0F
:101450008827B85F39F0B93FCCF3869577956795C3
:10146000B395D9F73EF490958095709561957F4F2F
:101470008F4F9F4F0895E89409C097FB3EF49095D5
:101480008095709561957F4F8F4F9F4F9923A9F05D
:10149000F92F96E9BB279395F695879577956795EC
:1014A000B795F111F8CFFAF4BB0F11F460FF1BC030
:1014B0006F5F7F4F8F4F9F4F16C0882311F096E9C3
:1014C00011C0772321F09EE8872F762F05C0662371
:1014D00071F096E8862F70E060E02AF09A95660F2A
:1014E000771F881FDAF7880F9695879597F90895E3
:1014F000990F0008550FAA0BE0E8FEEF1616170625
:10150000E807F907C0F012161306E407F50798F08C
:10151000621B730B840B950B39F40A2661F0232BA5
:10152000242B252B21F408950A2609F4A140A69521
:101530008FEF811D811D089597F99F6780E870E006
:1015400060E008959FEF80EC089500240A94161639
:10155000170618060906089500240A9412161306A1
:10156000140605060895092E0394000C11F488232F
:1015700052F0BB0F40F4BF2B11F460FF04C06F5F4B
:101580007F4F8F4F9F4F089557FD9058440F551F21
:1015900059F05F3F71F04795880F97FB991F61F0F5
:1015A0009F3F79F087950895121613061406551F6C
:1015B000F2CF4695F1DF08C0161617061806991FD8
:1015C000F1CF86957105610508940895E894BB27CD
:1015D00066277727CB0197F908950E94780A08F4C7
:1015E0008FEF08950E94050B0C94B30A0E94A50A80
:1015F00038F00E94AC0A20F0952311F00C949C0A5C
:101600000C94A20A11240C94E70A0E94C40A70F3F5
:10161000959FC1F3950F50E0551F629FF001729F97
:10162000BB27F00DB11D639FAA27F00DB11DAA1FA6
:10163000649F6627B00DA11D661F829F2227B00DF3
:10164000A11D621F739FB00DA11D621F839FA00D7E
:10165000611D221F749F3327A00D611D231F849FCE
:10166000600D211D822F762F6A2F11249F57504025
:101670009AF0F1F088234AF0EE0FFF1FBB1F661FA0
:10168000771F881F91505040A9F79E3F510580F069
:101690000C949C0A0C94E70A5F3FE4F3983ED4F361
:1016A000869577956795B795F795E7959F5FC1F70D
:1016B000FE2B880F911D9695879597F908950E94A6
:1016C000780A880B990B089597FB072E16F400945F
:1016D00007D077FD09D00E949A0B07FC05D03EF495
:1016E000909581959F4F0895709561957F4F0895CE
:1016F000A1E21A2EAA1BBB1BFD010DC0AA1FBB1F16
:10170000EE1FFF1FA217B307E407F50720F0A21B87
:10171000B30BE40BF50B661F771F881F991F1A94F4
:1017200069F760957095809590959B01AC01BD011E
:10173000CF010895AA1BBB1B51E107C0AA1FBB1F05
:10174000A617B70710F0A61BB70B881F991F5A954D
:10175000A9F780959095BC01CD010895EE0FFF1F6C
:101760000590F491E02D0994F894FFCF000000005B
:1017700011048702B502B4026E616E00696E6600E4
:101780006F766600444320566F6C74616765730022
:101790002D2D2D2D2D2D2D2D2D2D2D2D0041432089
:1017A000566F6C74616765730056313A200056328B
:0E17B0003A200056333A200056343A2000000A
:107E0000112484B714BE81FFF0D085E080938100F7
:107E100082E08093C00088E18093C10086E0809377
:107E2000C20080E18093C4008EE0C9D0259A86E02C
:107E300020E33CEF91E0309385002093840096BBD3
:107E4000B09BFECF1D9AA8958150A9F7CC24DD24C4
:107E500088248394B5E0AB2EA1E19A2EF3E0BF2EE7
:107E6000A2D0813461F49FD0082FAFD0023811F036
:107E7000013811F484E001C083E08DD089C08234E0
:107E800011F484E103C0853419F485E0A6D080C0E4
:107E9000853579F488D0E82EFF2485D0082F10E0AE
:107EA000102F00270E291F29000F111F8ED06801E7
:107EB0006FC0863521F484E090D080E0DECF843638
:107EC00009F040C070D06FD0082F6DD080E0C81688
:107ED00080E7D80618F4F601B7BEE895C0E0D1E017
:107EE00062D089930C17E1F7F0E0CF16F0E7DF06D8
:107EF00018F0F601B7BEE89568D007B600FCFDCFD4
:107F0000A601A0E0B1E02C9130E011968C91119780
:107F100090E0982F8827822B932B1296FA010C0160
:107F200087BEE89511244E5F5F4FF1E0A038BF0790
:107F300051F7F601A7BEE89507B600FCFDCF97BE46
:107F4000E89526C08437B1F42ED02DD0F82E2BD052
:107F50003CD0F601EF2C8F010F5F1F4F84911BD097
:107F6000EA94F801C1F70894C11CD11CFA94CF0C13
:107F7000D11C0EC0853739F428D08EE10CD085E9AC
:107F80000AD08FE07ACF813511F488E018D01DD067
:107F900080E101D065CF982F8091C00085FFFCCF94
:107FA0009093C60008958091C00087FFFCCF809118
:107FB000C00084FD01C0A8958091C6000895E0E648
:107FC000F0E098E1908380830895EDDF803219F02E
:107FD00088E0F5DFFFCF84E1DECF1F93182FE3DFCA
:107FE0001150E9F7F2DF1F91089580E0E8DFEE27F6
:047FF000FF270994CA
:027FFE00040479
:00000001FF
